:020000020000FC
:100000000FEF0DBF08E00EBF18DD3494D19212DC63
:10001000109050103A18327200E80093610004E02A
:10002000009361000E944D0000E007B90FEF08B98E
:100030000FEF04B900E005B90FEF0AB908E10BB9F9
:1000400000E00093C1001FEF20E050E00E94390063
:1000500005B300FFFBCFA89A04E606BD43954A30DE
:10006000A9F744270E943500F1CF23952F7025B9B9
:10007000089566B1161759F00E94520066B116171E
:1000800029F3162F60FF539561FF5A955F70F0E0DA
:10009000E8E0E50F74917BB9089503E005BD04E63F
:1000A00006BD08953FEF3A953030E9F73FEF3A95B6
:0E00B0003030E9F73FEF3A953030E9F7089528
:00000001FF
