:020000020000FC
:100000000FEF0DBF08E00EBF4079243019120278BF
:10001000001008034621060E00E80093610004E08A
:10002000009361000E945E0000E007B90FEF08B97D
:100030000FEF04B900E005B90FEF0AB908E10BB9F9
:1000400000E00093C1001FE720E050E080E090E076
:10005000A0E005B30E944A0000FFFBCFA89A04E687
:1000600006BD43954A30A9F7442783958A3089F71E
:1000700088270E944200EDCF20E0929593959170E1
:10008000929504C05217C1F323952F70A22FA92B6C
:10009000A5B9089566B1161759F00E94630066B1BC
:1000A000161731F0162F60FF539561FF5A955F7058
:1000B000F0E0E8E0E50F74917BB9089503E005BD39
:1000C00004E606BD08953FEF3A953030E9F73FEF7B
:1000D0003A953030E9F73FEF3A953030E9F7089537
:00000001FF
